:100000001DC035C034C033C032C02EC130C02FC077
:100010002EC02DC02CC02BC02AC029C028C0000073
:100020000000370000000000380001030000040059
:1000300002020202020201020408102011241FBE63
:10004000CFEDCDBF10E0A0E6B0E0ECEAF4E002C0F6
:1000500005900D92A236B107D9F720E0A2E6B0E0F4
:1000600001C01D92A337B207E1F748D11DC2C8CF26
:100070003FB7F8948091630090916400A09165006F
:10008000B091660022B708B601FE05C02F3F19F0F7
:100090000196A11DB11D3FBFBA2FA92F982F882708
:1000A000BC01CD01620F711D811D911D43E0660FE2
:1000B000771F881F991F4A95D1F70895CF92DF9235
:1000C000EF92FF92CF93DF936B017C01D1DFEB01C5
:1000D000CFDF6C1B7D0B683E7340A0F0C114D104D0
:1000E000E104F10439F4DF91CF91FF90EF90DF90BC
:1000F000CF90089581E0C81AD108E108F108C851ED
:10010000DC4FE6CFC114D104E104F10409F7EBCFD1
:1001100090E0FC01E65DFF4F3491FC01EA5CFF4F8B
:100120002491FC01E05DFF4FE491EE23B9F033230D
:1001300029F03130A1F48AB58F778ABDF0E0EE0F57
:10014000FF1FEC5DFF4FA591B4918FB7611118C0EF
:10015000F894EC9120952E232C938FBF0895323084
:1001600019F48AB58F7DE9CF333021F480B78F7DC4
:1001700080BFE4CF343011F78CB58F7D8CBDDECFDE
:10018000F894EC912E2BE8CF60E084E0C1DF61E0D1
:1001900070E080E090E092DF61E082E0B9DF61E052
:1001A00080E0B6DF6CE370E080E090E087DF60E045
:1001B00080E0AECF892B09F4E7CF60E082E0A8DFD2
:1001C00061E070E080E090E079DF61E084E0A0DF52
:1001D00061E080E09DDF64E170E080E090E06EDF50
:1001E00060E080E095DF64E170E080E090E066DF51
:1001F00061E080E08DDF68E270E080E090E05EDF4B
:1002000060E080E085CFCF93DF9390E0FC01EA5C73
:10021000FF4F2491805D9F4FFC0184918823D1F092
:1002200090E0880F991FFC01E25EFF4FA591B49109
:10023000FC01EC5DFF4FC591D491623071F49FB722
:10024000F8943C91822F809583238C93E8812E2B08
:1002500028839FBFDF91CF9108958FB7F894EC91D9
:100260002E2B2C938FBFF6CF1F920F920FB60F92AB
:1002700011242F933F938F939F93AF93BF938091BC
:10028000670090916800A0916900B0916A00309178
:10029000620026E0230F2D3768F129E8230F03962B
:1002A000A11DB11D209362008093670090936800A8
:1002B000A0936900B0936A008091630090916400FC
:1002C000A0916500B09166000196A11DB11D8093BB
:1002D000630090936400A0936500B0936600BF91A3
:1002E000AF919F918F913F912F910F900FBE0F90E3
:1002F0001F9018950296A11DB11DD4CF83E08ABD31
:1003000083BF789489B7826089BF80E48CBD8FEF0A
:100310008DBD87EC80BF86E886B961E080E073DF41
:1003200061E082E070DF61E084E06DDF60E080E04A
:10033000EFDE60E082E0ECDE60E084E0E9DE62E0D7
:1003400083E061DF90E080E099D090E08230910519
:100350000CF065C090936C0080936B0080916B00F3
:1003600090916C0027DF6CE370E080E090E0A6DE07
:10037000C1E0D0E08091600090916100B3995AC0D3
:10038000019721F410926100109260008091710039
:10039000909172001816190604F52FB7F894809101
:1003A000670090916800A0916900B0916A002FBF2A
:1003B00040916D0050916E0060916F0070917000DF
:1003C000841B950BA60BB70B80399140A105B10595
:1003D00020F0109272001092710080917100909143
:1003E000720002973CF280916B0090916C00892B17
:1003F000D9F481E090E0DEDED0936C00C0936B0016
:10040000109272001092710060916B0090E080E099
:100410003DD064E670E080E090E050DEABCF10921B
:100420006C0010926B009ACFAFDE10926C001092AD
:100430006B00E6CF892B09F0A9CF809171009091D4
:100440007200019690937200809371002FB7F89418
:100450008091670090916800A0916900B0916A0056
:100460002FBF80936D0090936E00A0936F00B093A8
:100470007000D0936100C093600088CFE199FECFF7
:100480001FBA8EBBE09A99278DB30895262FE19964
:10049000FECF1CBA1FBA8EBB2DBB0FB6F894E29AE2
:0C04A000E19A0FBE01960895F894FFCF7A
:0204AC0001004D
:00000001FF
